{"abi":[{"type":"constructor","inputs":[{"name":"initialOwner","type":"address","internalType":"address"}],"stateMutability":"nonpayable"},{"type":"function","name":"approve","inputs":[{"name":"to","type":"address","internalType":"address"},{"name":"tokenId","type":"uint256","internalType":"uint256"}],"outputs":[],"stateMutability":"nonpayable"},{"type":"function","name":"balanceOf","inputs":[{"name":"owner","type":"address","internalType":"address"}],"outputs":[{"name":"","type":"uint256","internalType":"uint256"}],"stateMutability":"view"},{"type":"function","name":"getApproved","inputs":[{"name":"tokenId","type":"uint256","internalType":"uint256"}],"outputs":[{"name":"","type":"address","internalType":"address"}],"stateMutability":"view"},{"type":"function","name":"getCurrentWeather","inputs":[{"name":"tokenId","type":"uint256","internalType":"uint256"}],"outputs":[{"name":"","type":"tuple","internalType":"struct WeatherNFT.WeatherData","components":[{"name":"temperature","type":"int256","internalType":"int256"},{"name":"humidity","type":"uint256","internalType":"uint256"},{"name":"windSpeed","type":"uint256","internalType":"uint256"},{"name":"weatherImage","type":"string","internalType":"string"},{"name":"timestamp","type":"uint256","internalType":"uint256"}]}],"stateMutability":"view"},{"type":"function","name":"getWeatherHistory","inputs":[{"name":"tokenId","type":"uint256","internalType":"uint256"}],"outputs":[{"name":"","type":"tuple[]","internalType":"struct WeatherNFT.WeatherData[]","components":[{"name":"temperature","type":"int256","internalType":"int256"},{"name":"humidity","type":"uint256","internalType":"uint256"},{"name":"windSpeed","type":"uint256","internalType":"uint256"},{"name":"weatherImage","type":"string","internalType":"string"},{"name":"timestamp","type":"uint256","internalType":"uint256"}]}],"stateMutability":"view"},{"type":"function","name":"isApprovedForAll","inputs":[{"name":"owner","type":"address","internalType":"address"},{"name":"operator","type":"address","internalType":"address"}],"outputs":[{"name":"","type":"bool","internalType":"bool"}],"stateMutability":"view"},{"type":"function","name":"mintNFT","inputs":[{"name":"to","type":"address","internalType":"address"},{"name":"initialUri","type":"string","internalType":"string"}],"outputs":[],"stateMutability":"nonpayable"},{"type":"function","name":"name","inputs":[],"outputs":[{"name":"","type":"string","internalType":"string"}],"stateMutability":"view"},{"type":"function","name":"nextTokenId","inputs":[],"outputs":[{"name":"","type":"uint256","internalType":"uint256"}],"stateMutability":"view"},{"type":"function","name":"owner","inputs":[],"outputs":[{"name":"","type":"address","internalType":"address"}],"stateMutability":"view"},{"type":"function","name":"ownerOf","inputs":[{"name":"tokenId","type":"uint256","internalType":"uint256"}],"outputs":[{"name":"","type":"address","internalType":"address"}],"stateMutability":"view"},{"type":"function","name":"renounceOwnership","inputs":[],"outputs":[],"stateMutability":"nonpayable"},{"type":"function","name":"safeTransferFrom","inputs":[{"name":"from","type":"address","internalType":"address"},{"name":"to","type":"address","internalType":"address"},{"name":"tokenId","type":"uint256","internalType":"uint256"}],"outputs":[],"stateMutability":"nonpayable"},{"type":"function","name":"safeTransferFrom","inputs":[{"name":"from","type":"address","internalType":"address"},{"name":"to","type":"address","internalType":"address"},{"name":"tokenId","type":"uint256","internalType":"uint256"},{"name":"data","type":"bytes","internalType":"bytes"}],"outputs":[],"stateMutability":"nonpayable"},{"type":"function","name":"setApprovalForAll","inputs":[{"name":"operator","type":"address","internalType":"address"},{"name":"approved","type":"bool","internalType":"bool"}],"outputs":[],"stateMutability":"nonpayable"},{"type":"function","name":"supportsInterface","inputs":[{"name":"interfaceId","type":"bytes4","internalType":"bytes4"}],"outputs":[{"name":"","type":"bool","internalType":"bool"}],"stateMutability":"view"},{"type":"function","name":"symbol","inputs":[],"outputs":[{"name":"","type":"string","internalType":"string"}],"stateMutability":"view"},{"type":"function","name":"tokenURI","inputs":[{"name":"tokenId","type":"uint256","internalType":"uint256"}],"outputs":[{"name":"","type":"string","internalType":"string"}],"stateMutability":"view"},{"type":"function","name":"transferFrom","inputs":[{"name":"from","type":"address","internalType":"address"},{"name":"to","type":"address","internalType":"address"},{"name":"tokenId","type":"uint256","internalType":"uint256"}],"outputs":[],"stateMutability":"nonpayable"},{"type":"function","name":"transferOwnership","inputs":[{"name":"newOwner","type":"address","internalType":"address"}],"outputs":[],"stateMutability":"nonpayable"},{"type":"function","name":"updateWeather","inputs":[{"name":"tokenId","type":"uint256","internalType":"uint256"},{"name":"temperature","type":"int256","internalType":"int256"},{"name":"humidity","type":"uint256","internalType":"uint256"},{"name":"windSpeed","type":"uint256","internalType":"uint256"},{"name":"weatherImage","type":"string","internalType":"string"}],"outputs":[],"stateMutability":"nonpayable"},{"type":"function","name":"weatherHistory","inputs":[{"name":"","type":"uint256","internalType":"uint256"},{"name":"","type":"uint256","internalType":"uint256"}],"outputs":[{"name":"temperature","type":"int256","internalType":"int256"},{"name":"humidity","type":"uint256","internalType":"uint256"},{"name":"windSpeed","type":"uint256","internalType":"uint256"},{"name":"weatherImage","type":"string","internalType":"string"},{"name":"timestamp","type":"uint256","internalType":"uint256"}],"stateMutability":"view"},{"type":"event","name":"Approval","inputs":[{"name":"owner","type":"address","indexed":true,"internalType":"address"},{"name":"approved","type":"address","indexed":true,"internalType":"address"},{"name":"tokenId","type":"uint256","indexed":true,"internalType":"uint256"}],"anonymous":false},{"type":"event","name":"ApprovalForAll","inputs":[{"name":"owner","type":"address","indexed":true,"internalType":"address"},{"name":"operator","type":"address","indexed":true,"internalType":"address"},{"name":"approved","type":"bool","indexed":false,"internalType":"bool"}],"anonymous":false},{"type":"event","name":"BatchMetadataUpdate","inputs":[{"name":"_fromTokenId","type":"uint256","indexed":false,"internalType":"uint256"},{"name":"_toTokenId","type":"uint256","indexed":false,"internalType":"uint256"}],"anonymous":false},{"type":"event","name":"MetadataUpdate","inputs":[{"name":"_tokenId","type":"uint256","indexed":false,"internalType":"uint256"}],"anonymous":false},{"type":"event","name":"OwnershipTransferred","inputs":[{"name":"previousOwner","type":"address","indexed":true,"internalType":"address"},{"name":"newOwner","type":"address","indexed":true,"internalType":"address"}],"anonymous":false},{"type":"event","name":"Transfer","inputs":[{"name":"from","type":"address","indexed":true,"internalType":"address"},{"name":"to","type":"address","indexed":true,"internalType":"address"},{"name":"tokenId","type":"uint256","indexed":true,"internalType":"uint256"}],"anonymous":false},{"type":"error","name":"ERC721IncorrectOwner","inputs":[{"name":"sender","type":"address","internalType":"address"},{"name":"tokenId","type":"uint256","internalType":"uint256"},{"name":"owner","type":"address","internalType":"address"}]},{"type":"error","name":"ERC721InsufficientApproval","inputs":[{"name":"operator","type":"address","internalType":"address"},{"name":"tokenId","type":"uint256","internalType":"uint256"}]},{"type":"error","name":"ERC721InvalidApprover","inputs":[{"name":"approver","type":"address","internalType":"address"}]},{"type":"error","name":"ERC721InvalidOperator","inputs":[{"name":"operator","type":"address","internalType":"address"}]},{"type":"error","name":"ERC721InvalidOwner","inputs":[{"name":"owner","type":"address","internalType":"address"}]},{"type":"error","name":"ERC721InvalidReceiver","inputs":[{"name":"receiver","type":"address","internalType":"address"}]},{"type":"error","name":"ERC721InvalidSender","inputs":[{"name":"sender","type":"address","internalType":"address"}]},{"type":"error","name":"ERC721NonexistentToken","inputs":[{"name":"tokenId","type":"uint256","internalType":"uint256"}]},{"type":"error","name":"OwnableInvalidOwner","inputs":[{"name":"owner","type":"address","internalType":"address"}]},{"type":"error","name":"OwnableUnauthorizedAccount","inputs":[{"name":"account","type":"address","internalType":"address"}]}],"bytecode":{"object":"0x608060405234801561000f575f5ffd5b50604051611c91380380611c9183398101604081905261002e9161011b565b806040518060400160405280600a81526020016915d9585d1a195c93919560b21b8152506040518060400160405280600481526020016315d3919560e21b815250815f908161007d91906101e0565b50600161008a82826101e0565b5050506001600160a01b0381166100ba57604051631e4fbdf760e01b81525f600482015260240160405180910390fd5b6100c3816100ca565b505061029a565b600780546001600160a01b038381166001600160a01b0319831681179093556040519116919082907f8be0079c531659141344cd1fd0a4f28419497f9722a3daafe3b4186f6b6457e0905f90a35050565b5f6020828403121561012b575f5ffd5b81516001600160a01b0381168114610141575f5ffd5b9392505050565b634e487b7160e01b5f52604160045260245ffd5b600181811c9082168061017057607f821691505b60208210810361018e57634e487b7160e01b5f52602260045260245ffd5b50919050565b601f8211156101db57805f5260205f20601f840160051c810160208510156101b95750805b601f840160051c820191505b818110156101d8575f81556001016101c5565b50505b505050565b81516001600160401b038111156101f9576101f9610148565b61020d81610207845461015c565b84610194565b6020601f82116001811461023f575f83156102285750848201515b5f19600385901b1c1916600184901b1784556101d8565b5f84815260208120601f198516915b8281101561026e578785015182556020948501946001909201910161024e565b508482101561028b57868401515f19600387901b60f8161c191681555b50505050600190811b01905550565b6119ea806102a75f395ff3fe608060405234801561000f575f5ffd5b506004361061013d575f3560e01c806375794a3c116100b4578063b88d4fde11610079578063b88d4fde146102ac578063c87b56dd146102bf578063e985e9c5146102d2578063eacabe14146102e5578063f2fde38b146102f8578063fa0f6c531461030b575f5ffd5b806375794a3c146102645780638da5cb5b1461026d57806395d89b411461027e578063a22cb46514610286578063b489ab1014610299575f5ffd5b806323b872dd1161010557806323b872dd146101e257806332ef3f86146101f557806342842e0e146102155780636352211e1461022857806370a082311461023b578063715018a61461025c575f5ffd5b806301ffc9a71461014157806306fdde0314610169578063081812fc1461017e578063095ea7b3146101a95780631c172aa7146101be575b5f5ffd5b61015461014f36600461135b565b61032b565b60405190151581526020015b60405180910390f35b610171610355565b60405161016091906113a4565b61019161018c3660046113b6565b6103e4565b6040516001600160a01b039091168152602001610160565b6101bc6101b73660046113e8565b61040b565b005b6101d16101cc366004611410565b61041a565b604051610160959493929190611430565b6101bc6101f0366004611466565b6104ec565b6102086102033660046113b6565b61057a565b60405161016091906114e6565b6101bc610223366004611466565b61070b565b6101916102363660046113b6565b61072a565b61024e6102493660046114f8565b610734565b604051908152602001610160565b6101bc610779565b61024e60095481565b6007546001600160a01b0316610191565b61017161078c565b6101bc610294366004611511565b61079b565b6101bc6102a73660046115f3565b6107a6565b6101bc6102ba366004611652565b610840565b6101716102cd3660046113b6565b610858565b6101546102e03660046116c9565b610963565b6101bc6102f33660046116fa565b610990565b6101bc6103063660046114f8565b6109c8565b61031e6103193660046113b6565b610a05565b6040516101609190611745565b5f6001600160e01b03198216632483248360e11b148061034f575061034f82610b2b565b92915050565b60605f8054610363906117a8565b80601f016020809104026020016040519081016040528092919081815260200182805461038f906117a8565b80156103da5780601f106103b1576101008083540402835291602001916103da565b820191905f5260205f20905b8154815290600101906020018083116103bd57829003601f168201915b5050505050905090565b5f6103ee82610b7a565b505f828152600460205260409020546001600160a01b031661034f565b610416828233610bb2565b5050565b6008602052815f5260405f208181548110610433575f80fd5b905f5260205f2090600502015f9150915050805f015490806001015490806002015490806003018054610465906117a8565b80601f0160208091040260200160405190810160405280929190818152602001828054610491906117a8565b80156104dc5780601f106104b3576101008083540402835291602001916104dc565b820191905f5260205f20905b8154815290600101906020018083116104bf57829003601f168201915b5050505050908060040154905085565b6001600160a01b03821661051a57604051633250574960e11b81525f60048201526024015b60405180910390fd5b5f610526838333610bbf565b9050836001600160a01b0316816001600160a01b031614610574576040516364283d7b60e01b81526001600160a01b0380861660048301526024820184905282166044820152606401610511565b50505050565b6105a86040518060a001604052805f81526020015f81526020015f8152602001606081526020015f81525090565b6105b182610b7a565b505f828152600860205260409020548061060d5760405162461bcd60e51b815260206004820152601960248201527f4e6f2077656174686572206461746120617661696c61626c65000000000000006044820152606401610511565b5f8381526008602052604090206106256001836117f4565b8154811061063557610635611807565b905f5260205f2090600502016040518060a00160405290815f82015481526020016001820154815260200160028201548152602001600382018054610679906117a8565b80601f01602080910402602001604051908101604052809291908181526020018280546106a5906117a8565b80156106f05780601f106106c7576101008083540402835291602001916106f0565b820191905f5260205f20905b8154815290600101906020018083116106d357829003601f168201915b50505050508152602001600482015481525050915050919050565b61072583838360405180602001604052805f815250610840565b505050565b5f61034f82610b7a565b5f6001600160a01b03821661075e576040516322718ad960e21b81525f6004820152602401610511565b506001600160a01b03165f9081526003602052604090205490565b610781610cb1565b61078a5f610cde565b565b606060018054610363906117a8565b610416338383610d2f565b6107ae610cb1565b6107b785610b7a565b506040805160a0810182528581526020808201868152828401868152606084018681524260808601525f8b81526008855295862080546001818101835591885294909620855160059095020193845591519483019490945592516002820155915190918291600382019061082b908261185f565b50608082015181600401555050505050505050565b61084b8484846104ec565b6105743385858585610dcd565b606061086382610b7a565b505f828152600660205260408120805461087c906117a8565b80601f01602080910402602001604051908101604052809291908181526020018280546108a8906117a8565b80156108f35780601f106108ca576101008083540402835291602001916108f3565b820191905f5260205f20905b8154815290600101906020018083116108d657829003601f168201915b505050505090505f61090f60408051602081019091525f815290565b905080515f03610920575092915050565b81511561095257808260405160200161093a929190611931565b60405160208183030381529060405292505050919050565b61095b84610ef5565b949350505050565b6001600160a01b039182165f90815260056020908152604080832093909416825291909152205460ff1690565b610998610cb1565b6009546109a58382610f66565b6109af8183610fc7565b60098054905f6109be83611945565b9190505550505050565b6109d0610cb1565b6001600160a01b0381166109f957604051631e4fbdf760e01b81525f6004820152602401610511565b610a0281610cde565b50565b6060610a1082610b7a565b505f82815260086020908152604080832080548251818502810185019093528083529193909284015b82821015610b20578382905f5260205f2090600502016040518060a00160405290815f82015481526020016001820154815260200160028201548152602001600382018054610a87906117a8565b80601f0160208091040260200160405190810160405280929190818152602001828054610ab3906117a8565b8015610afe5780601f10610ad557610100808354040283529160200191610afe565b820191905f5260205f20905b815481529060010190602001808311610ae157829003601f168201915b5050505050815260200160048201548152505081526020019060010190610a39565b505050509050919050565b5f6001600160e01b031982166380ac58cd60e01b1480610b5b57506001600160e01b03198216635b5e139f60e01b145b8061034f57506301ffc9a760e01b6001600160e01b031983161461034f565b5f818152600260205260408120546001600160a01b03168061034f57604051637e27328960e01b815260048101849052602401610511565b6107258383836001611016565b5f828152600260205260408120546001600160a01b0390811690831615610beb57610beb81848661111a565b6001600160a01b03811615610c2557610c065f855f5f611016565b6001600160a01b0381165f90815260036020526040902080545f190190555b6001600160a01b03851615610c53576001600160a01b0385165f908152600360205260409020805460010190555b5f8481526002602052604080822080546001600160a01b0319166001600160a01b0389811691821790925591518793918516917fddf252ad1be2c89b69c2b068fc378daa952ba7f163c4a11628f55a4df523b3ef91a4949350505050565b6007546001600160a01b0316331461078a5760405163118cdaa760e01b8152336004820152602401610511565b600780546001600160a01b038381166001600160a01b0319831681179093556040519116919082907f8be0079c531659141344cd1fd0a4f28419497f9722a3daafe3b4186f6b6457e0905f90a35050565b6001600160a01b038216610d6157604051630b61174360e31b81526001600160a01b0383166004820152602401610511565b6001600160a01b038381165f81815260056020908152604080832094871680845294825291829020805460ff191686151590811790915591519182527f17307eab39ab6107e8899845ad3d59bd9653f200f220920489ca2b5937696c31910160405180910390a3505050565b6001600160a01b0383163b15610eee57604051630a85bd0160e11b81526001600160a01b0384169063150b7a0290610e0f90889088908790879060040161195d565b6020604051808303815f875af1925050508015610e49575060408051601f3d908101601f19168201909252610e4691810190611999565b60015b610eb0573d808015610e76576040519150601f19603f3d011682016040523d82523d5f602084013e610e7b565b606091505b5080515f03610ea857604051633250574960e11b81526001600160a01b0385166004820152602401610511565b805181602001fd5b6001600160e01b03198116630a85bd0160e11b14610eec57604051633250574960e11b81526001600160a01b0385166004820152602401610511565b505b5050505050565b6060610f0082610b7a565b505f610f1660408051602081019091525f815290565b90505f815111610f345760405180602001604052805f815250610f5f565b80610f3e8461117e565b604051602001610f4f929190611931565b6040516020818303038152906040525b9392505050565b6001600160a01b038216610f8f57604051633250574960e11b81525f6004820152602401610511565b5f610f9b83835f610bbf565b90506001600160a01b03811615610725576040516339e3563760e11b81525f6004820152602401610511565b5f828152600660205260409020610fde828261185f565b506040518281527ff8e1a15aba9398e019f0b49df1a4fde98ee17ae345cb5f6b5e2c27f5033e8ce79060200160405180910390a15050565b808061102a57506001600160a01b03821615155b156110eb575f61103984610b7a565b90506001600160a01b038316158015906110655750826001600160a01b0316816001600160a01b031614155b801561107857506110768184610963565b155b156110a15760405163a9fbf51f60e01b81526001600160a01b0384166004820152602401610511565b81156110e95783856001600160a01b0316826001600160a01b03167f8c5be1e5ebec7d5bd14f71427d1e84f3dd0314c0f7b2291e5b200ac8c7c3b92560405160405180910390a45b505b50505f90815260046020526040902080546001600160a01b0319166001600160a01b0392909216919091179055565b61112583838361120e565b610725576001600160a01b03831661115357604051637e27328960e01b815260048101829052602401610511565b60405163177e802f60e01b81526001600160a01b038316600482015260248101829052604401610511565b60605f61118a8361126f565b60010190505f8167ffffffffffffffff8111156111a9576111a961154a565b6040519080825280601f01601f1916602001820160405280156111d3576020820181803683370190505b5090508181016020015b5f19016f181899199a1a9b1b9c1cb0b131b232b360811b600a86061a8153600a85049450846111dd57509392505050565b5f6001600160a01b0383161580159061095b5750826001600160a01b0316846001600160a01b0316148061124757506112478484610963565b8061095b5750505f908152600460205260409020546001600160a01b03908116911614919050565b5f8072184f03e93ff9f4daa797ed6e38ed64bf6a1f0160401b83106112ad5772184f03e93ff9f4daa797ed6e38ed64bf6a1f0160401b830492506040015b6d04ee2d6d415b85acef810000000083106112d9576d04ee2d6d415b85acef8100000000830492506020015b662386f26fc1000083106112f757662386f26fc10000830492506010015b6305f5e100831061130f576305f5e100830492506008015b612710831061132357612710830492506004015b60648310611335576064830492506002015b600a831061034f5760010192915050565b6001600160e01b031981168114610a02575f5ffd5b5f6020828403121561136b575f5ffd5b8135610f5f81611346565b5f81518084528060208401602086015e5f602082860101526020601f19601f83011685010191505092915050565b602081525f610f5f6020830184611376565b5f602082840312156113c6575f5ffd5b5035919050565b80356001600160a01b03811681146113e3575f5ffd5b919050565b5f5f604083850312156113f9575f5ffd5b611402836113cd565b946020939093013593505050565b5f5f60408385031215611421575f5ffd5b50508035926020909101359150565b85815284602082015283604082015260a060608201525f61145460a0830185611376565b90508260808301529695505050505050565b5f5f5f60608486031215611478575f5ffd5b611481846113cd565b925061148f602085016113cd565b929592945050506040919091013590565b8051825260208101516020830152604081015160408301525f606082015160a060608501526114d260a0850182611376565b608093840151949093019390935250919050565b602081525f610f5f60208301846114a0565b5f60208284031215611508575f5ffd5b610f5f826113cd565b5f5f60408385031215611522575f5ffd5b61152b836113cd565b91506020830135801515811461153f575f5ffd5b809150509250929050565b634e487b7160e01b5f52604160045260245ffd5b5f5f67ffffffffffffffff8411156115785761157861154a565b50604051601f19601f85018116603f0116810181811067ffffffffffffffff821117156115a7576115a761154a565b6040528381529050808284018510156115be575f5ffd5b838360208301375f60208583010152509392505050565b5f82601f8301126115e4575f5ffd5b610f5f8383356020850161155e565b5f5f5f5f5f60a08688031215611607575f5ffd5b85359450602086013593506040860135925060608601359150608086013567ffffffffffffffff811115611639575f5ffd5b611645888289016115d5565b9150509295509295909350565b5f5f5f5f60808587031215611665575f5ffd5b61166e856113cd565b935061167c602086016113cd565b925060408501359150606085013567ffffffffffffffff81111561169e575f5ffd5b8501601f810187136116ae575f5ffd5b6116bd8782356020840161155e565b91505092959194509250565b5f5f604083850312156116da575f5ffd5b6116e3836113cd565b91506116f1602084016113cd565b90509250929050565b5f5f6040838503121561170b575f5ffd5b611714836113cd565b9150602083013567ffffffffffffffff81111561172f575f5ffd5b61173b858286016115d5565b9150509250929050565b5f602082016020835280845180835260408501915060408160051b8601019250602086015f5b8281101561179c57603f198786030184526117878583516114a0565b9450602093840193919091019060010161176b565b50929695505050505050565b600181811c908216806117bc57607f821691505b6020821081036117da57634e487b7160e01b5f52602260045260245ffd5b50919050565b634e487b7160e01b5f52601160045260245ffd5b8181038181111561034f5761034f6117e0565b634e487b7160e01b5f52603260045260245ffd5b601f82111561072557805f5260205f20601f840160051c810160208510156118405750805b601f840160051c820191505b81811015610eee575f815560010161184c565b815167ffffffffffffffff8111156118795761187961154a565b61188d8161188784546117a8565b8461181b565b6020601f8211600181146118bf575f83156118a85750848201515b5f19600385901b1c1916600184901b178455610eee565b5f84815260208120601f198516915b828110156118ee57878501518255602094850194600190920191016118ce565b508482101561190b57868401515f19600387901b60f8161c191681555b50505050600190811b01905550565b5f81518060208401855e5f93019283525090919050565b5f61095b61193f838661191a565b8461191a565b5f60018201611956576119566117e0565b5060010190565b6001600160a01b03858116825284166020820152604081018390526080606082018190525f9061198f90830184611376565b9695505050505050565b5f602082840312156119a9575f5ffd5b8151610f5f8161134656fea26469706673582212204419f805c9e9061ddc77658ad419ae99aceb59274f6a5d34bd17bdaafe5133ad64736f6c634300081c0033","linkReferences":{}},"methodIdentifiers":{"approve(address,uint256)":"095ea7b3","balanceOf(address)":"70a08231","getApproved(uint256)":"081812fc","getCurrentWeather(uint256)":"32ef3f86","getWeatherHistory(uint256)":"fa0f6c53","isApprovedForAll(address,address)":"e985e9c5","mintNFT(address,string)":"eacabe14","name()":"06fdde03","nextTokenId()":"75794a3c","owner()":"8da5cb5b","ownerOf(uint256)":"6352211e","renounceOwnership()":"715018a6","safeTransferFrom(address,address,uint256)":"42842e0e","safeTransferFrom(address,address,uint256,bytes)":"b88d4fde","setApprovalForAll(address,bool)":"a22cb465","supportsInterface(bytes4)":"01ffc9a7","symbol()":"95d89b41","tokenURI(uint256)":"c87b56dd","transferFrom(address,address,uint256)":"23b872dd","transferOwnership(address)":"f2fde38b","updateWeather(uint256,int256,uint256,uint256,string)":"b489ab10","weatherHistory(uint256,uint256)":"1c172aa7"},"id":19}